:020000040000fa
:080000000002040000000000f2
:020000040000fa
:0400080020040000d0
:020000040000fa
:04000c0020040000cc
:020000040000fa
:0400100020040000c8
:020000040000fa
:0400140020040000c4
:020000040000fa
:0400180020040000c0
:020000040000fa
:04001c0020040000bc
:020000040000fa
:0400200020040000b8
:020000040000fa
:0400240020040000b4
:020000040000fa
:0400280020040000b0
:020000040000fa
:04002c0020040000ac
:020000040000fa
:0400300020040000a8
:020000040000fa
:040034004403000081
:020000040000fa
:0400380020040000a0
:020000040000fa
:04003c00200400009c
:020000040000fa
:040040002004000098
:020000040000fa
:040044002004000094
:020000040000fa
:04004800fa020000b8
:020000040000fa
:04004c00200400008c
:020000040000fa
:040050002004000088
:020000040000fa
:04005400dc030000c9
:020000040000fa
:04005800b2030000ef
:020000040000fa
:04005c008e0300000f
:020000040000fa
:040060002004000078
:020000040000fa
:040064002004000074
:020000040000fa
:040068002004000070
:020000040000fa
:04006c00200400006c
:020000040000fa
:040070002004000068
:020000040000fa
:040074002004000064
:020000040000fa
:040078002004000060
:020000040000fa
:04007c00200400005c
:020000040000fa
:040080002004000058
:020000040000fa
:040084002004000054
:020000040000fa
:040088002004000050
:020000040000fa
:04008c00200400004c
:020000040000fa
:040090002004000048
:020000040000fa
:040094006403000001
:020000040000fa
:040098002004000040
:020000040000fa
:04009c00200400003c
:020000040000fa
:0400a0002004000038
:020000040000fa
:0400a4002004000034
:020000040000fa
:0400a8002004000030
:020000040000fa
:0400ac00200400002c
:020000040000fa
:0400b0002004000028
:020000040000fa
:0400b4002004000024
:020000040000fa
:0400b8002004000020
:020000040000fa
:0400bc00200400001c
:020000040000fa
:0400c0002004000018
:020000040000fa
:0400c4002004000014
:020000040000fa
:0400c8002004000010
:020000040000fa
:0400cc00200400000c
:020000040000fa
:0400d0002004000008
:020000040000fa
:0400d4002004000004
:020000040000fa
:0400d8002004000000
:020000040000fa
:0400dc0020040000fc
:020000040000fa
:0400e00020040000f8
:020000040000fa
:0400e40020040000f4
:020000040000fa
:0400e80020040000f0
:020000040000fa
:0400ec0020040000ec
:020000040000fa
:0400f00020040000e8
:020000040000fa
:0400f40020040000e4
:020000040000fa
:0400f80020040000e0
:020000040000fa
:0400fc0020040000dc
:020000040000fa
:0401000020040000d7
:020000040000fa
:0401040020040000d3
:020000040000fa
:0401080020040000cf
:020000040000fa
:04010c0020040000cb
:020000040000fa
:0401100020040000c7
:020000040000fa
:0401140020040000c3
:020000040000fa
:0401180020040000bf
:020000040000fa
:04011c0020040000bb
:020000040000fa
:0401200020040000b7
:020000040000fa
:0401240020040000b3
:020000040000fa
:0401280020040000af
:020000040000fa
:04012c0020040000ab
:020000040000fa
:0401300020040000a7
:020000040000fa
:0401340020040000a3
:020000040000fa
:04013800200400009f
:020000040000fa
:04013c00200400009b
:020000040000fa
:040140002004000097
:020000040000fa
:040144002004000093
:020000040000fa
:04014800200400008f
:020000040000fa
:04014c00200400008b
:020000040000fa
:040150002004000087
:020000040000fa
:040154002004000083
:020000040000fa
:04015800200400007f
:020000040000fa
:04015c00200400007b
:020000040000fa
:040160002004000077
:020000040000fa
:040164002004000073
:020000040000fa
:04016800200400006f
:020000040000fa
:04016c00200400006b
:020000040000fa
:040170002004000067
:020000040000fa
:040174002004000063
:020000040000fa
:04017800200400005f
:020000040000fa
:04017c00200400005b
:020000040000fa
:040180002004000057
:020000040000fa
:040184002004000053
:020000040000fa
:04018800200400004f
:020000040000fa
:04018c00200400004b
:020000040000fa
:040190002004000047
:020000040000fa
:040194002004000043
:020000040000fa
:04019800200400003f
:020000040000fa
:04019c00200400003b
:020000040000fa
:0401a0002004000037
:020000040000fa
:0401a4002004000033
:020000040000fa
:0401a800200400002f
:020000040000fa
:0401ac00200400002b
:020000040000fa
:0401b0002004000027
:020000040000fa
:0401b4002004000023
:020000040000fa
:0401b800200400001f
:020000040000fa
:0401bc00200400001b
:020000040000fa
:0401c0002004000017
:020000040000fa
:0401c4002004000013
:020000040000fa
:0401c800200400000f
:020000040000fa
:0401cc00200400000b
:020000040000fa
:0401d0002004000007
:020000040000fa
:0401d4002004000003
:020000040000fa
:0401d80020040000ff
:020000040000fa
:0401dc0020040000fb
:020000040000fa
:0401e00020040000f7
:020000040000fa
:0401e40020040000f3
:020000040000fa
:0401e80020040000ef
:020000040000fa
:0401ec0020040000eb
:020000040000fa
:0401f00020040000e7
:020000040000fa
:0401f40020040000e3
:020000040000fa
:0401f80020040000df
:020000040000fa
:0401fc0020040000db
:020000040000fa
:0402000020040000d6
:020000040000fa
:0402040020040000d2
:020000040000fa
:0402080020040000ce
:020000040000fa
:04020c0020040000ca
:020000040000fa
:0402100020040000c6
:020000040000fa
:0402140020040000c2
:020000040000fa
:0402180020040000be
:020000040000fa
:04021c0020040000ba
:020000040000fa
:0402200020040000b6
:020000040000fa
:0402240020040000b2
:020000040000fa
:0402280020040000ae
:020000040000fa
:04022c0020040000aa
:020000040000fa
:0402300020040000a6
:020000040000fa
:0402340020040000a2
:020000040000fa
:04023800200400009e
:020000040000fa
:04023c00200400009a
:020000040000fa
:040240002004000096
:020000040000fa
:040244002004000092
:020000040000fa
:04024800200400008e
:020000040000fa
:04024c00200400008a
:020000040000fa
:040250002004000086
:020000040000fa
:040254002004000082
:020000040000fa
:04025800200400007e
:020000040000fa
:04025c00200400007a
:020000040000fa
:040260002004000076
:020000040000fa
:040264002004000072
:020000040000fa
:04026800200400006e
:020000040000fa
:04026c00200400006a
:020000040000fa
:040270002004000066
:020000040000fa
:040274002004000062
:020000040000fa
:04027800200400005e
:020000040000fa
:04027c00200400005a
:020000040000fa
:040280002004000056
:020000040000fa
:100400006f1e21000eff2c000e018800000000006e
:10041000000020000000e000020032000001200087
:100420002002880014000700070107000000e00018
:1004300003003a0020b9210001002000020037002b
:100440000000200001002000810f70000100320038
:100450000f000700000020000000e0000200320052
:1004600000000200000000006e0c0200000000000e
:100470000040da000000fe00200020000000e00044
:1004800002003200100020009001880000000600e9
:10049000a1028800800478000000eb001f003700f4
:1004a000e284440054a0b4009905ba00e2844400f8
:1004b00054a0b4009906ba00e284440054a0b400e9
:1004c0000006eb00476fde00fd07b200ae018800ba
:1004d000636ce10003003a000ad801000000eb0061
:1004e0000e003700606ce10008003a00004deb00a0
:1004f0000a05e800020039003420ec000af0a000f0
:100500008b05e900f9ff3e00040037006168e10057
:10051000010032000086eb000b00070019c7ba008b
:100520000e04e0001905ba0003003a000a00e000da
:10053000dbff3a0000000600fe07b200ae028800b2
:100540008a047800f5ff37000cd0a300e20f4d00bd
:100550001c003b0089027800354dba000a05e8000e
:10056000020039003420ec000af0a0008b05e900fd
:100570000f003200254dba000a05e80002003900dc
:100580003420ec000af0a0008b05e90008003200de
:100590000c00e0000600320015cdba000a05e800a4
:1005a000020039003420ec000af0a0008b05e900bd
:1005b0008984e80054a0b4000b00e000e2ff3a0098
:1005c000000006009902ba00055d78008b05e9007d
:1005d000f7ff3200c82ade00055d78008b05e900d0
:1005e000f3ff32000c00e000f1ff320019ddba0029
:1005f000eeff37003600f800809fbe00829fbe00ed
:10060000849fbe00869fbe000000fa000108a9007a
:100610001ad0bf000004e0000b003a000041eb00dc
:1006200000002000011a24006d0a070012c0b30068
:1006300000002000011a2400690a070010c0b3005e
:100640001af0b700090037000041eb00000020005d
:10065000011a2c00620a070012c0b300000020003b
:10066000011a2c005e0a07001a70ef000080fa00e1
:100670004f03be004f02be004f01be004f00be0040
:100680003600f900004006003600f800809fbe00ea
:10069000829fbe00849fbe00869fbe000000fa00bd
:1006a0000068a900ad0907008f0b07000080fa0061
:1006b0004f03be004f02be004f01be004f00be0000
:1006c0003600f900004006003600f800809fbe00aa
:1006d000829fbe00849fbe00869fbe000000fa007d
:1006e0000368a900d2050700b0808000c1808000a7
:1006f00061004000e0804800b0808800c180880030
:100700000080fa004f03be004f02be004f01be0042
:100710004f00be003600f90000400600801f780040
:100720000000fa0001a8a90000188000a08e88002f
:1007300010188000b08e880020188000c08e8800bd
:1007400030188000d08e880040188000e08e88002d
:1007500010c0b3002bf0b7000080fa004f00780003
:10076000004006003600f800809fbe00829fbe0059
:10077000849fbe00869fbe000000fa000188a90089
:10078000f1808000e0808000808f50000200320005
:10079000f60a0700010037002070ef000080fa0021
:1007a0004f03be004f02be004f01be004f00be000f
:1007b0003600f900004006003600f800809fbe00b9
:1007c000829fbe00849fbe00869fbe000000fa008c
:1007d0000168a90010118000640060000000e000c2
:1007e000010032002242a900101180006200600066
:1007f0000000e000060032002222a90005003700b8
:100800003011800000407800470b070001003700de
:100810000000000010118000610060000000e00096
:10082000f7ff3a000080fa004f03be004f02be00ff
:100830004f01be004f00be003600f9000040060028
:100840000040da000000fe00000005001400200057
:10085000aa033700f4ff2f00a80337000001be00f1
:100860003c0007000470a70003f0a1006509b10077
:10087000160032000d0035006828e1000600350042
:10088000f0ff2f00f1ff27000300e00013003b0002
:1008900001002800000005000000400081804800a1
:1008a0008502e900fcff3a0008003700f88f42009b
:1008b00002003c008000eb00000005008100d10038
:1008c0000080d3008502e800fcff3a000300e0004e
:1008d00002003b0060001000e080180000000600ed
:1008e0000001be001b0007000470a70003f0a10078
:1008f00003f8a30013003a006509b10010003200ac
:10090000090035006928e1000200350001002800d7
:100910000000050000004000818048008502e900d9
:10092000fcff3a0000000600f88f42000500350089
:100930008100d1000080d3008502e800fcff3a006e
:10094000000006008000eb00000005006011b80008
:1009500085033700c70ade00f107b200f50fb200c9
:1009600008003200e1cf4200020032000170a00016
:1009700024000500810f700001003200040805000a
:1009800044000500810f700002003a0014000500c9
:100990008502e9000000400081c04800fcff3b00e8
:1009a0000170a0002400050007f8270007836100fc
:1009b0000638e10004003a00f70720008783610051
:1009c0008703710001003a0003f0a200889fbe0077
:1009d0008a9fbe008c9fbe00470ade000480a100f3
:1009e000c71ade000580a100070028000785600007
:1009f00087856100f70f20000720e1009e0032008c
:100a00000728e1009c003200010678000400e000a5
:100a1000b4003200f7072000878060000170a0005a
:100a20000500e000c0003200f70720008781610068
:100a30000370a000050652000f003a000b50e100c1
:100a40000b0032000308e10002003a000200e1005e
:100a50007e003200020450008384580004003100fc
:100a60000001fd008101fd008402fd008a05fd00fa
:100a70006044b800210037000520e10005003d007a
:100a80000001fd008101fd008402fd008a05fd00da
:100a9000050652007a60e100050035000170a100f2
:100aa0004722dd00848070008a8070006300370078
:100ab0006044b800ef02660007ff2f0007066600db
:100ac0000500e00006003400f08312008714dd000a
:100ad0000511de00071bdd00060171008519de002f
:100ae0007060e10005003500090478008204780098
:100af000030178008001eb00700656000b50e10006
:100b000003003a00020040008380480004003700e0
:100b100060041400e0841c00020058008380580028
:100b20000188a300060032008100d1000080d300bc
:100b30008984d3000884d3000402e800270037002a
:100b40000178a30025003a000100e0000300320014
:100b50008186cf00698656000a0037008c0020008d
:100b60000000e00004003a000900780088047800e2
:100b70000004eb00700252008086cf000d06460094
:100b80000c06e9007060e100060035008000780086
:100b900009007800880478000004eb007006560015
:100ba000700252000c00e0000c0034008c08dd00e4
:100bb000f00316000703de00868070000c00dd00e5
:100bc000074bde00060070008c4cdd000743de00a2
:100bd000868474000c44dd000c0252006120e100a8
:100be0002000350061016000070028008781640053
:100bf000f7ff270087836400070374000300e00009
:100c00000600320082037300040032000000e80096
:100c1000e08048000188a3000e003a00f70f200092
:100c20000720e1004a003d000170a1004722dd00dd
:100c3000810072008a8070000000be004f06be0076
:100c40004f05be004f04be00000006006000b80063
:100c5000faff37008100d1000080d3000402e800d1
:100c6000eeff37000401780089017400a10107003c
:100c70008a807000f1ff3700f70107000702780053
:100c80000001fd008101fd00f301070087027800eb
:100c9000850372000778a300040032000001fd0004
:100ca0008101fd0006020700e4ff370085036200b2
:100cb0000768a300080032000b50e1000300320077
:100cc000f0ff2f00f1ff2700dcff37000001fd00df
:100cd0008101fd00d9ff37000468a300d7ff32006f
:100ce000faff3700f8ff2700888360000b003a0006
:100cf0000000e00009003a0083036400828373006f
:100d0000020032000200be00ccff37000b50e100b1
:100d1000ceff3a000200be00c8ff370014002000da
:100d2000810064003eff3700f8ff270088836100e0
:100d300004003a000200e00002003a008c00780053
:100d4000beff3700150020008301640039ff370023
:100d500001f827000000200081007500b7ff370070
:100d6000889fbe008a9fbe008c9fbe001b00200093
:100d70000202be000586680006002800060666001e
:100d80004709de00f20fb200820032000243e800a1
:100d900080003200c729de00f30fb2007d00320070
:100da0000343e8007b003200f107b2000170a000ad
:100db000f507b2000570a000c708dd004903de009a
:100dc000868070004700dd00c72add004923de0071
:100dd000868272004722dd000305510004035000a3
:100de00085835800030031000000400081804800e6
:100df0000a05e9008c1f78008a9fbe00040050009d
:100e0000858058000402420085824a0000004000ac
:100e1000818048000005eb000004be006033b8008c
:100e20000406be000d48e100560031001100090023
:100e30004dccd8000c01b8000d02b80084814100ef
:100e400060824a008283530003045c0084845c0057
:100e500060055d000a00e00025003a00800578008a
:100e60000d40e1004900310088007800070078005b
:100e7000110009004d88d8000c01b8000d02b8001f
:100e80008481410060824a006003110083835b001b
:100e900004045c00e0845c000900e00021003a00ea
:100ea0004f01be000300e0002b003200e3016000b0
:100eb000070673008c81710001003200640070002d
:100ec0004200de004e5edd000c007000c258de0005
:100ed00001e0a00083010700cf017800818071004c
:100ee0004f06be004f05be004f04be0000000600c6
:100ef0008c8343000d044c00e0844c0060054d00e1
:100f00000000e9000a00e000d4ff32008c834300b7
:100f10000d044c00e0844c0060054d000000e90029
:100f2000ceff37000c0343008d834b0060044c0060
:100f3000e0844c000000e9000900e000d8ff320026
:100f40000c0343008d834b0060044c00e0844c0094
:100f50000000e900d2ff37004200de004e5edd00f7
:100f60000c007000c258de0001e0a000cf01780044
:100f70000300e000daff320060001000e08018009b
:100f8000d7ff3700f0ff2f00aaff3700f0ff2f0038
:100f9000b9ff37000404be002f0107008706780060
:100fa0000004fd008104fd002b010700078366009b
:100fb0000678a300030032000960a7000800be0005
:100fc0002c0037000d78a300020032000800be009c
:100fd000280037000778a30026003a0001f0a1009e
:100fe00009f0a1000668a30003003200f1ff27000a
:100ff000f0ff2f00baff37000d68a3000300320096
:101000000800be008c807000b5ff37000768a300a1
:1010100007003a000648a30003003200f1ff270052
:10102000f0ff2f00aeff37000d48a3000300320091
:101030006000b8008c807000a9ff37000748a3004b
:101040000400320001f82700000020008c807000ae
:10105000a3ff3700760107000004fd008104fd00b6
:1010600002057800720107000802be008a017800bc
:1010700059ff37000160a000120220006281880041
:1010800097ff37000100e000120032000500e00089
:1010900010003200889fbe008a9fbe008c9fbe0059
:1010a0000006eb0001f8a30003003200600010000e
:1010b000e08018000cf0a00005f8a3000300320047
:1010c00060021200e0821a000cf0a2008005eb0022
:1010d00041ff37006000b80002000500038368008c
:1010e0000700280007036300470ade000480a10010
:1010f000c71ade000580a100f70f20000720e100dd
:10110000420032000728e10040003200889fbe0004
:101110008a9fbe008c1f7800f107b200f307b2006f
:101120000400e000640032000170a0000500e0004f
:10113000680032000370a00085054200eb07b10093
:101140000204b8000302b8008484440060854a00a9
:10115000020ab800848444000a854a00030ab800e1
:1011600004054500040033000804d0008984d2003f
:101170000a85d2008b05e9006158e1003d00350089
:10118000021020000901610003082000898161002c
:10119000f70720008783640008867300c84cde00d0
:1011a000c853dd00878474004855de000300e0006a
:1011b0000600320082037600040032008904e80051
:1011c00060054d000a88a3000c003a00f70f2000cc
:1011d0000758e10044003d000a70a100c75ddd0032
:1011e0000a8575008a007300090078004f067800b0
:1011f0004f05be004f04be00000006000a05d100e6
:101200008984d3008b05e800f0ff3700881f780041
:101210000604780090000700070278000001fd0036
:101220008101fd008c0007008702780085037200b1
:101230000778a300050032000001fd008101fd00d8
:101240009f0007004f04780000000600850372002d
:101250000748a30003003200f0ff2f00f1ff270032
:10126000f8ff37000000200001f827008880700098
:10127000f4ff3700880178004848dd008081710064
:101280004848de00c850dd0001007000c850de0094
:10129000060478000b0178001600070088807000b3
:1012a000d2ff37000500e0000500320017002000e3
:1012b0003a0007009dff370081037000f9ff3a00f4
:1012c000860078004f0678004f05be004f04be0030
:1012d0000000050083037100f9ff320027002000a1
:1012e0002e00070094ff370001f827008680700069
:1012f000f4ff37000100e000260032006101110018
:101300007810e10023003c006022b8007010e1007a
:101310000400350080027800010078008000eb00b6
:10132000700151000200e000090034007003110058
:10133000062add00822ade008603dd008782720035
:101340000200de00860bdd00070070008208de0070
:1013500084817100f4ff270004826200848171009f
:1013600004002800848262006102600005f0a6008b
:101370000000060004827100070032000000e8004f
:10138000e0804800000006000002be006000b800d7
:10139000efff37006000b80000000600889fbe0025
:1013a0000004eb006138e10016003a000100e000a3
:1013b00008003a00c800de004800dd008800200078
:1013c0000100e00003003a00c800de004800dd0034
:1013d000680444008184cf00e9845400060034008e
:1013e0008908dd00f08314008703de008780700029
:1013f0000900dd0009044400610214004f04be002e
:10140000000006000300e00008003a00c811de00fa
:101410004811dd00880020000300e00003003a00ce
:10142000c811de004811dd00680444008384cf0049
:10143000e9845400060034008919dd00f0831400ab
:101440008713de00878171000911dd000904440063
:10145000e1021400e9ff37002700200001f0a70097
:1014600017002000470bde00f60fb2000400320028
:101470000643e8000a0032004702b30000000600fd
:1014800001037800f607b2000603700002003a007c
:101490000703b300000006008702b3000000060047
:1014a00001037800f607b200060370000200320064
:1014b0000770a000000006000760a0000000060002
:1014c0000478a300040032000578a3000300320072
:1014d0000168a30001003a000200be000160a00004
:1014e0000000060081017000270032008002eb003e
:1014f00001f8a3000300320060001000e080180033
:1015000015002000f40720000202420020003400f1
:10151000f703200087036000060420000003630037
:1015200002082000000161004700de00c909dd005b
:1015300000807100c708de000600e00008003200ed
:1015400087037100060032001000b0000180b00077
:101550000188a30002003200c108de000402e80096
:10156000f107b200f30f20000320e10003003d006b
:101570004722dd00810072002900370001f82700b2
:101580000000eb00260037006000b80000000600f5
:10159000680212007f20e100020034006000b80001
:1015a0001f0037006011b8007020e1000400350012
:1015b00080017800010078008000eb00700252008a
:1015c0000400e00009003400f00312000719dd00f8
:1015d0008419de000703dd00868171000400de004f
:1015e000070bdd00060070008408de00f7ff27000f
:1015f00083836300870371000600280003036300f0
:10160000070032000700e00003003a0061016000bb
:1016100002817300020032001000b0000180b000af
:101620000500a6000000060001f0a0000000060072
:101630004f0ade004709de00f107b200f20fb200e8
:101640000b003200f207b1000170a000c708dd00f6
:10165000c901de00838070004700dd000400a600a1
:101660000000060060001000e08018000000060086
:10167000810f700001003a00000006008182cf0057
:101680000500e00010003e008082cf00ee824200a4
:101690007028e1000400390007003e008000780057
:1016a0000000eb000e003700708312008600de00a1
:1016b0000500dd000a003700708352008600dd005f
:1016c0000000eb0006003700e28252008508dd00d2
:1016d000708312000603de00868070000500dd00c6
:1016e0007507b0000501ea000400a600000006002e
:1016f00060001000e080180000000600889fbe0017
:101700008a9fbe00841f78006c0007004f0078009d
:1017100011003300f0ff2f00838f6c0006003b00a8
:10172000040565000a00a7000800370009f0a600bc
:101730001000200008003700820f5400838f5c00e7
:10174000030039001000200001003e0000002000ce
:1017500009f0a7000000ea004f05be004f04be00dc
:101760000000e00000000600889fbe008a9fbe00c7
:1017700000827000040271000482710026003200b1
:101780000004be000200be006011b8006b0920001a
:10179000950220000182cf000a0039000541b10006
:1017a0000082cf00070039000541b1000982cf0057
:1017b000040039000541b1000882cf000100390062
:1017c0000541b10005425200120032000a003b0000
:1017d00082817100610164008100d1000080d3002a
:1017e0008984d3000884d3008b05e8000442e80014
:1017f000f7ff3a00070037000804440089844c00d2
:1018000000004800818048008b05e9000442e9009f
:10181000f9ff3a00030007004f05be004f04be0069
:101820000000060081002000618055000b003d0093
:101830000b00200061fe2f000100e1001d003400bc
:1018400082817100610164008904d1000884d300a1
:101850000000e800faff3a00710020006100640017
:1018600003007000020060000900320061044400bf
:10187000e0844c000988a500050032008b05e800d3
:101880006808e10002003a008904d1000884d3000e
:10189000f20f20000258e10005003d00c75ddd00a9
:1018a000f907b20089807500080078000000060082
:1018b0000bf827008b007800000005000004be0034
:1018c00024fc07000003be000405be000200be00a9
:0c18d00020fc0700844f7500000006009b
:020000040000fa
:1018dc000c00fa00889fbe00bf070700e90707004d
:1018ec0064cea80064eea800254ea800fe030700f5
:1018fc0008040700fa0407000041eb000000200078
:10190c00011a2400b3050700ba06070048070700b0
:10191c00fa060700e14f50002e013a00fb060700c3
:10192c00f2060700800078000e80e80001087800bd
:10193c000e80e80010007800100078008000eb00aa
:10194c00fffb07003233230033052400e0fd0700c2
:10195c000200200003582400fefc0700d2cc2c000f
:10196c00c3042400dafd0700640147000089be00af
:10197c0064004700100178009001900000002000e6
:10198c0081202400f3fc070002002000030a24003d
:10199c0002fc0700208e8800318e88000e80e80043
:1019ac00100078000080e800100078008000eb0048
:1019bc00e3fb07003233230033052400c4fd07008a
:1019cc000200200003582400e2fc0700d2cc2c00bb
:1019dc00c3042400befd0700640147000089be005b
:1019ec006400470010017800900190000000200076
:1019fc0081202400d7fc070002002000030a2400e9
:101a0c00e6fb0700008e8800118e88000e80e8002f
:101a1c001000780064004000100078008000eb009b
:101a2c00c7fb07003233230033052400a8fd070051
:101a3c000200200003582400c6fc0700d2cc2c0066
:101a4c00c3042400a2fd0700640147000089be0006
:101a5c006400470010017800900190000000200005
:101a6c0081202400bbfc070002002000030a240094
:101a7c00cafb0700408e8800518e88000e80e8005b
:101a8c001000780066004000100078008000eb0029
:101a9c00abfb070032332300330524008cfd070019
:101aac000200200003582400aafc0700d2cc2c0012
:101abc00c304240086fd0700640147000089be00b2
:101acc006400470010017800900190000000200095
:101adc00812024009ffc070002002000030a240040
:101aec00aefb0700808e8800918e88000e80e80087
:101afc001000780068004000100078008000eb00b7
:101b0c008ffb0700323323003305240070fd0700e0
:101b1c0002002000035824008efc0700d2cc2c00bd
:101b2c00c30424006afd0700640147000089be005d
:101b3c006400470010017800900190000000200024
:101b4c008120240083fc070002002000030a2400eb
:101b5c0092fb0700608e8800718e88000a70ef007f
:101b6c00808e8000918e800018c0b300020020008f
:101b7c00031f240032fb07000000e00001003500c9
:101b8c000044eb000804e000030032000ad0bf0060
:101b9c000044a0000af0b700608e8000718e8000b7
:101bac0018c0b30002002000c320240024fb07004f
:101bbc000000e000010035000044eb000804e000e8
:101bcc00030032000ad0bf000034a0000af0b700b6
:101bdc00408e8000518e800018c0b300020020009f
:101bec000322240016fb07000000e0000100350072
:101bfc000044eb000804e000030032000ad0bf00f0
:101c0c000024a0000af0b700008e8000118e800026
:101c1c0018c0b30002002000c320240008fb0700fa
:101c2c000000e000010035000044eb000804e00077
:101c3c00030032000ad0bf000014a0000af0b70065
:101c4c00208e8000318e800018c0b300020020006e
:101c5c00031f2400fafa07000000e0000100350021
:101c6c000044eb000804e000030032000ad0bf007f
:101c7c000004a0000af0b700208e8000318e800096
:101c8c0018c0b30002002000031f2400ecfa070068
:101c9c000000e000010035000044eb000804e00007
:101cac000b003a00008e8000118e800018c0b3002b
:101cbc0002002000031f2400e1fa07000000e000ee
:101ccc00010035000044eb000804e0000200320083
:101cdc00254ea80001003700254ea900408e80003b
:101cec00518e800018c0b30002002000031f240096
:101cfc00d3fa07000000e000010035000044eb00bf
:101d0c000804e0000200320064eea8000100370075
:101d1c0064eea900808e8000918e800018c0b30004
:101d2c0002002000031f2400c5fa07000000e00099
:101d3c00010035000044eb000804e0000b003a0001
:101d4c00608e8000718e800018c0b30002002000ed
:101d5c00031f2400bafa07000000e0000100350060
:101d6c000044eb000804e0000200320064cea8003e
:101d7c000100370064cea900608e8000718e800057
:101d8c00d4fa070080447800408e8000518e800089
:101d9c00d0fa070000447800008e8000118e80007d
:101dac00ccfa0700804078006800470009487800aa
:101dbc0069004700084878006a004700014878002d
:101dcc00680047000001780031002000000320006b
:101ddc00970107000000eb00000f78000a003700a5
:101dec00e1050700eb004700804878006b004700d6
:101dfc0011002000180507006b0047001040780008
:101e0c00040207001e0fe800f10507009e0f5000aa
:101e1c00f3ff3c00803e200001002000b4060700c8
:101e2c00bbfe37000000fa000bd0bf000080fb00a7
:101e3c00cf80de003201200003002000820f500012
:101e4c00838f580080003e0000060100130037000d
:101e5c001c003700250037002f00370030003700fa
:101e6c00390037003a003700430037004400370090
:101e7c004e0037004f003700590037007200370012
:101e8c0071003700700037006f00370056003700c4
:101e9c005f00370060003700690037001630ef0034
:101eac001830ef000041eb006000b8004904070057
:101ebc0012c0b3006000b8004604070010c0b300a5
:101ecc000bf0b700b2808000c3808000803e200001
:101edc0001002000800f5100818f59005d003600f9
:101eec0020c0b3000bf0b7005b0037000041eb00e3
:101efc0000002000811c24003604070012c0b3002f
:101f0c0000002000811c24003204070030c0b30004
:101f1c000bf0b70050003700510007004e0037009f
:101f2c000041eb0000002000811c24002904070064
:101f3c0012c0b3006000b8002604070050c0b30004
:101f4c000bf0b70044003700450007004200370093
:101f5c000041eb006000b8001e04070012c0b30083
:101f6c0000002000811c24001a04070070c0b3007c
:101f7c000bf0b70038003700390007003600370087
:101f8c000041eb0000002000811424001104070024
:101f9c0012c0b3000000200081142c000d040700b7
:101fac0090c0b3000bf0b7002b0037002c000700db
:101fbc00290037000041eb000000200081142c00a8
:101fcc000404070012c0b300000020008114240098
:101fdc0000040700b0c0b3000bf0b7001e003700c0
:101fec001f0007001c0037000041eb000000200020
:101ffc0001122c00f703070012c0b30000002000f0
:10200c0001172400f303070010c1b3000bf0b70055
:10201c0013000700100037000041eb000000200007
:10202c0001172400eb03070012c0b30000002000ce
:10203c0001122c00e703070030c1b3000bf0b7000e
:10204c0007000700040037000b70ef0000000000d1
:10205c0001003700000000000080fa0000000600bc
:10206c000600fa000ad0bf000080fb00cf80de0023
:10207c00f201200003002000820f5000838f5800d3
:10208c0081003e00000601001f00370021003700d0
:10209c0023003700250037002700370029003700c0
:1020ac002b0037002d0037002f0037003100370090
:1020bc003300370035003700370037003900370060
:1020cc003b0037003d0037003f0037004100370030
:1020dc004300370045003700470037004900370000
:1020ec004b0037004d0037004f00370051003700d0
:1020fc0053003700550037005700370059003700a0
:10210c005b0037005d00370020c0b3000cf0b70057
:10211c005d00370020c1b3000cf0b7005a00370047
:10212c0080c0b3000cf0b7005700370080c0b3007c
:10213c000cf0b7005400370080c0b3000cf0b700af
:10214c005100370080c0b3000cf0b7004e003700d0
:10215c0080c0b3000cf0b7004b00370080c0b30058
:10216c000cf0b70048003700a0c0b3000cf0b7006b
:10217c0045003700a0c0b3000cf0b7004200370098
:10218c0080c0b3000cf0b7003f00370080c0b30034
:10219c000cf0b7003c003700a0c0b3000cf0b70047
:1021ac003900370080c0b3000cf0b70036003700a0
:1021bc0080c0b3000cf0b7003300370080c0b30010
:1021cc000cf0b7003000370000c1b3000cf0b700c2
:1021dc002d00370020c0b3000cf0b7002a003700e8
:1021ec0080c0b3000cf0b7002700370080c0b300ec
:1021fc000cf0b70024003700a0c0b3000cf0b700ff
:10220c002100370080c0b3000cf0b7001e0037006f
:10221c0080c0b3000cf0b7001b00370080c0b300c7
:10222c000cf0b70018003700a0c0b3000cf0b700da
:10223c0015003700a0c0b3000cf0b7001200370037
:10224c00a0c0b3000cf0b7000f00370080c0b30083
:10225c000cf0b7000c003700a0c0b3000cf0b700b6
:10226c0009003700a0c0b3000cf0b700060037001f
:10227c00a0c0b3000cf0b7000300370080c0b3005f
:10228c000cf0b700000000000cd0bf008080fb00f9
:10229c000bd0bf000080fb000000e900808f5000d5
:1022ac00230032000cd0bf000bf0b700b5002100aa
:1022bc0095427800b0808000c18080004808de0024
:1022cc0000427800b0808000c18080004008de00b1
:1022dc0080417800b0808000c18080004809dd001a
:1022ec004800de0000007100c808de0000417800e4
:1022fc00b0808000c180800080407800054f78005d
:10230c000e00e800044878000e80e80003487800ce
:10231c0063004700024878006400470001487800d9
:10232c000e0178005100200000052000400007003d
:10233c000080fa00000006000a00fa00e4014700e1
:10234c0080097800660047000108780068004700a3
:10235c00020878000040eb00004f7800e0cfb3009b
:10236c001e4f680064004700100078004880de00b3
:10237c00804078001e40780000c06800004f780054
:10238c006400470010007800804078001e40780000
:10239c0000c06800004f780066004700100078000d
:1023ac004880de00804078001e40780000c0680045
:1023bc00004f7800660047001000780080407800dd
:1023cc001e40780000c06800004f78008000eb00d1
:1023dc000e80e800010878000c0037000e80e80041
:1023ec009000780068004700100078000100400061
:1023fc00104078001e4f68000e80e8001000780036
:10240c008000e8000e80e800010878000e80e800eb
:10241c00900078006600470010007800808f500014
:10242c00eeff35001e4078000080fa000000060028
:10243c000e00fa00889fbe00e80147008009780072
:10244c006a004700010878006c0047000208780019
:10245c000f0478000f007800800478006a004700b1
:10246c0010007800660040000001e900e40047001d
:10247c00820878000000e8000000e8000000d100ad
:10248c00800040000f007800818747000000e800c2
:10249c000000d10000004000e600470080087800f2
:1024ac000000eb00000f7800660047001000780079
:1024bc001e004000e1cfb300014878001e0fe80079
:1024cc0068004700100078004880de0080407800eb
:1024dc0066004700100078001e004000014878009c
:1024ec001e0fe8006800470010007800804078005c
:1024fc0066004700100078001e004000014878007c
:10250c001e0fe8006a004700100078004880de00cb
:10251c008040780066004700100078001e004000e4
:10252c00014878001e0fe8006a0047001000780090
:10253c008040780066004700100078001e004000c4
:10254c00014878001e0fe8008000eb000e80e800c8
:10255c0001087800100037000e80e8009000780029
:10256c006c0047001000780001004000904078009b
:10257c0066004700100078001e00400001487800fb
:10258c001e0fe8000e80e800100078008000e800c4
:10259c000e80e800010878000e80e80090007800ba
:1025ac006a00470010007800808f5000eaff350069
:1025bc006c004700100178006a004700900078001a
:1025cc0068004700100078005bff0700e60047003a
:1025dc00910078009e804000804878001e0fe80033
:1025ec006a0047001000780066004000e6004700d3
:1025fc0011017800800078000200780016030700b3
:10260c0089077800880778004f04be000080fa0024
:10261c00000006000400fa008e80e8008048780074
:10262c0014d0bf000080fb00e30f500028003200e4
:10263c00e30f500007003c00e10f50001300320084
:10264c00e10f500019003c000000e00008003200cf
:10265c005e003700e50f50003b003200e50f5000e4
:10266c0023003500e60f50004600320057003700bb
:10267c000e80e80010407800e24f400056003a000f
:10268c0010c0b30014f0b700560037000e80e800fd
:10269c00104078000080fb004800dd00708088004e
:1026ac0020c0b30014f0b7004e0037000e80e800d5
:1026bc00104078000080fb00718080000100400019
:1026cc007080880030c0b30014f0b70045003700ac
:1026dc000e80e800104078000080fb004800dd0010
:1026ec008080880040c0b30014f0b7003d00370074
:1026fc000e80e800104078000080fb008180800094
:10270c000100400080808800808080000000e00094
:10271c0003003a0060c0b30014f0b700310037007a
:10272c008180800000402000808f50000200340027
:10273c001470ef002b0037001230ef0050c0b300c4
:10274c0014f0b7002700370091808000e0122100c0
:10275c00010040008e80e8001148780090808000d5
:10276c000000e800908088009180800080808000cc
:10277c00808f50001a00350060c0b30014f0b70011
:10278c00180037000e80e800104f78008180800020
:10279c0070808000e2122100e7fe07008e00e80046
:1027ac00804878000e00e800104078009e4f5000e2
:1027bc0004003a008180800070808000e2122100c9
:1027cc000a0007001470ef00060037001470ef00c9
:1027dc00000000000300370000000000010037007b
:1027ec00000000000080fa00000006000600fa005d
:1027fc00000f78000e80e8000108780064004700a4
:10280c00020878001e00780001032000810f5000a0
:10281c001100320001042000810f5000130032001f
:10282c0001022000810f500014003a0064004700a0
:10283c001000780010407800e14f50000c0032007e
:10284c00640047001000780010407800e24f500000
:10285c0009003200090037006400470010007800be
:10286c0010407800e14f50000000320003003700a8
:10287c000000000001003700000000000080fa009a
:10288c00000006000000fa0013e1a90011e1a90004
:10289c001061a8001021a90081088000f0fc2f0015
:1028ac0000806000800888000a21ef000621ef00fc
:1028bc00404c20007008880000402b006008880005
:1028cc002142800080ff2f00008060000000a000eb
:1028dc00204288000108a9002108a80011e1a800e5
:1028ec000080fa00000006000000fa000000200042
:1028fc00a13724001200070005e1a9000421a9005a
:10290c000068a9002068a80005e1a8000080fa0072
:10291c00000006000000fa0000002000a14724007f
:10292c007b0007001fe1a9001e21a9000368a90074
:10293c002368a8001fe1a8000080fa000000060030
:10294c000400fa00881f7800008fbe002108800068
:10295c00f0fc2f0000806000200888001e01780029
:10296c009e0190000068290081c12400f9f807003d
:10297c0018c0b30002f02f00f3772400b2f7070061
:10298c000000e00001003c000044eb000804e00003
:10299c005400320021088000f0fc2f000080600001
:1029ac000040a000200888001e0178009e019000c5
:1029bc000068290081c12400e6f80700020020000d
:1029cc0003102400e3f8070018c0b30002f02f0036
:1029dc00f37724009cf707000000e00001003c00a6
:1029ec000044eb000804e0003200320021088000b3
:1029fc00f0fc2f00008060000050a0002008880030
:102a0c001e0178009e0190000068290081c12400fd
:102a1c00d0f807000200200003282400cdf807009e
:102a2c0018c0b30002f02f00f377240086f70700dc
:102a3c000000e00001003c000044eb000804e00052
:102a4c0010003200210880000003200001007000fb
:102a5c00200888001e0178009e0190000068290063
:102a6c0081c12400bbf807000200200003382400b9
:102a7c00b8f8070076f70700000078001008880007
:102a8c00200037001e0178009e019000006829008c
:102a9c0081c12400aff807000200200003282400a5
:102aac00acf807006af707000000780010088800ef
:102abc00140037001e0178009e0190000068290068
:102acc0081c12400a3f80700020020000310240099
:102adc00a0f807005ef707000000780010088800d7
:102aec00080037001e0178009e0190000068290044
:102afc0081c1240097f8070055f707000000780003
:102b0c00100888004f0478000080fa0000000600ce
:102b1c000400fa00881f7800008fbe00f1088000c6
:102b2c00f0fc2f0000806000f00888001e01780087
:102b3c009e0190000068290081c1240085f80700df
:102b4c0018c0b30002f02f00f37724003ef7070003
:102b5c000000e00001003c000044eb000804e00031
:102b6c0054003200f1088000f0fc2f00008060005f
:102b7c000040a000f00888001e0178009e01900023
:102b8c000068290081c1240072f8070002002000af
:102b9c00031024006ff8070018c0b30002f02f00d8
:102bac00f377240028f707000000e00001003c0048
:102bbc000044eb000804e00032003200f108800011
:102bcc00f0fc2f00008060000050a000f00888008e
:102bdc001e0178009e0190000068290081c124002c
:102bec005cf80700020020000328240059f80700b5
:102bfc0018c0b30002f02f00f377240012f707007f
:102c0c000000e00001003c000044eb000804e00080
:102c1c0010003200f1088000000320000100700059
:102c2c00f00888001e0178009e01900000682900c1
:102c3c0081c1240047f8070002002000033824005b
:102c4c0044f8070002f7070000007800d00888005d
:102c5c00200037001e0178009e01900000682900ba
:102c6c0081c124003bf80700020020000328240047
:102c7c0038f80700f6f6070000007800d008880046
:102c8c00140037001e0178009e0190000068290096
:102c9c0081c124002ff8070002002000031024003b
:102cac002cf80700eaf6070000007800d00888002e
:102cbc00080037001e0178009e0190000068290072
:102ccc0081c1240023f80700e1f60700000078001a
:102cdc00d00888004f0478000080fa00000006003d
:102cec000000fa001160800080ff2f00008060005f
:102cfc001060880000fa20002060880023aca80037
:102d0c00238ca80011618000f03f2f000080600030
:102d1c0000a0a00010618800300020002061880015
:102d2c00c3aca800c38ca80011668000f03f2f0034
:102d3c000080600000a0a000106688003000200019
:102d4c002066880001eca8000080fa000000060054
:102d5c000000fa00889fbe00e48d8000f58d800095
:102d6c00c08d8000d18d800018c0b3000001be0062
:102d7c000400be00b2f607000000e00001003500c0
:102d8c000044eb000804e0000d003200c88d800008
:102d9c00d98d8000e48d8000f58d8000108180003d
:102dac00218180000001be000400be0004f7070072
:102dbc000801be00cb000700e08d8800f18d880073
:102dcc00e48d8000f58d8000c08d8000d18d800059
:102ddc0018c0b3000001be000400be009af6070044
:102dec000000e00001003c000044eb000804e0009f
:102dfc000d003200c88d8000d98d8000e48d8000dc
:102e0c00f58d800010818000218180000001be00c2
:102e1c000400be00e1f607000801be0097000700a1
:102e2c00e08d8800f18d8800e08d8000f18d8000b0
:102e3c0018c0b3006011b80083f607000000e00072
:102e4c0001003c000044eb000804e00004003200e8
:102e5c00c3cca90024eea800c3eca80003003700e3
:102e6c00c3eca90024cea800c3cca800e08d800040
:102e7c00f18d80006b00070002002000032224006b
:102e8c0093f8070093f6070000007800306688007e
:102e9c00a48d8000b58d8000808d8000918d800088
:102eac0018c0b3000001be000400be0064f60700a9
:102ebc000000e000010035000044eb000804e000d5
:102ecc000d003200888d8000998d8000a48d8000cb
:102edc00b58d800010818000218180000001be0032
:102eec000400be00b6f607000801be007d00070016
:102efc00a08d8800b18d8800a48d8000b58d8000d8
:102f0c00808d8000918d800018c0b3000001be0040
:102f1c000400be004cf607000000e00001003c007d
:102f2c000044eb000804e0000d003200888d8000a6
:102f3c00998d8000a48d8000b58d8000108180005b
:102f4c00218180000001be000400be0093f6070042
:102f5c000801be0049000700a08d8800b18d8800d3
:102f6c00a08d8000b18d800018c0b3006011b80036
:102f7c0035f607000000e00001003c000044eb00c7
:102f8c000804e0000400320023cca90015eea800d0
:102f9c0023eca8000300370023eca90015cea800f1
:102fac0023cca800a08d8000b18d80001d000700ef
:102fbc00020020000322240045f8070045f6070014
:102fcc0000007800306188004f04be000080fa00d9
:102fdc00000006000600fa00008fbe0064004700e7
:102fec00024878006400470010407800e14f500020
:102ffc0005003a001e0178009e019000828d880029
:10300c00938d8800050037001e0078009e0090000c
:10301c0001f0a200c08d8800d18d88000080fa00dc
:10302c00000006000400fa00881f7800008fbe0024
:10303c0018c0b3006011b8001e0078009e0090000c
:10304c0001f607000000e00001003d000044eb0029
:10305c000804e000030032001e0078009e0090007f
:10306c00030037001e0078009e00900001f0a200c3
:10307c004f0478000080fa00000006000800fa00f7
:10308c00881f7800008fbe00640047000288be00d5
:10309c0018c0b30064004700100178009001900044
:1030ac001e0078009e009000e7f507000000e0008d
:1030bc0001003c000044eb000804e0000300320077
:1030cc001e0078009e00900003003700640047004b
:1030dc0090009000100078004f0478000080fa00f7
:1030ec00000006000800fa00881f7800008fbe0060
:1030fc00640047000288be0018c0b300640047009b
:10310c0010017800900190001e0078009e00900045
:10311c00cbf507000000e000010035000044eb0097
:10312c000804e000030032001e0078009e009000ae
:10313c0003003700640047009000900010007800f6
:10314c004f0478000080fa00000006000c00fa0022
:10315c00881f7800008fbe00640047000288be0004
:10316c00680047000488be0018c0b3006800470020
:10317c0010017800900190001e0078009e009000d5
:10318c00b1f507000000e00001003c000044eb003a
:10319c000804e0000400320068004700301f78008b
:1031ac00201778000f00370018c0b30064004700e8
:1031bc0010017800900190001e0078009e00900095
:1031cc009ff507000000e000010035000044eb0013
:1031dc000804e0000300320064004700301f780050
:1031ec00201778001e0078009e0090004f04780095
:1031fc000080fa00000006000400fa00008fbe00f8
:10320c00b2fd2000930424001e0078009e00900064
:10321c00d0f607000200200043332400acf707006f
:10322c000080fa00000006000400fa00008fbe00c7
:10323c00b2fd2000930424001e0078009e00900034
:10324c00a3f707000200200043332400c1f6070057
:10325c000080fa00000006000600fa000e81e8006b
:10326c000009780064004700010878000040eb007a
:10327c00004f780058000700e400470091007800e8
:10328c00810f5000130034000040eb00004f780019
:10329c00070037001e80fb008e80e800910078004c
:1032ac0000804000104078000c0007001e4fe80022
:1032bc001e80fb00e400470091007800810f500055
:1032cc00f4ff35002f0007000004e00001003a0075
:1032dc00230007000080fa00000006000200fa003c
:1032ec00004f7800e1808000e002210001004000e6
:1032fc001e487800e08080000000e800e080880034
:10330c00e1808000f0072000808f50000100340025
:10331c001c30ef000080fa00000006000200fa00ea
:10332c00f1808000e0022100010040001040780094
:10333c00004f7800f08080000000e800f0808800ea
:10334c00f1808000f0072000808f500001003400d5
:10335c001e30ef001e4078000080fa0000000600ce
:10336c000200fa0010c0b30020f0b700ebff07001a
:10337c00004f78001e80fb00201188000080fa00ae
:10338c00000006000000fa0020d0bf000080fa0008
:10339c00000006000200fa00e1808000f08080004e
:1033ac00808f500004003500e1808000f0808000a8
:1033bc00008f500005003700f180800000082000cd
:1033cc0001005000e1808000010f40001e007800d9
:1033dc000080fa00000006000200fa00edff070072
:1033ec0001082000008f50001e0078000080fa00b9
:1033fc00000006000000fa0021e3a9002143a80008
:10340c0001198000f0cf2f000080600000198800a7
:10341c002043a90001198000000e2000010070005b
:10342c000019880011198000f0ff21000080600055
:10343c00101988002343a80011198000f0cf2f0029
:10344c0000806000101988001119800030f82f00de
:10345c00008060000040a000101988002203a90021
:10346c002223a90025e3a900f0c0b30024e3b70090
:10347c0021198000f00f2e008080600000f02000e9
:10348c0001007000201988003303a9001e2ea8002b
:10349c002e0ea8002f6ea8004feea8006f2ea800cd
:1034ac003063a80030c3a8003163a80031e3a80042
:1034bc002e03a8004119800000fc2f000080600042
:1034cc004019880028e3a90001a8a90021a8a80098
:1034dc0021e3a8000080fa00000006000000fa00ba
:1034ec002023a8000080fa00000006000000fa006b
:1034fc00401d21000080fa00000006000000fa00c8
:10350c002bd0bf000080fa00000006000000fa007b
:10351c002b70ef000080fa00000006000200fa0099
:10352c00004f78003b0007000000e0000c00340066
:10353c0031818000e00a2100010040001e48780023
:10354c00308180000000e8003081880031818000eb
:10355c00f0072000808f5000010034002630ef006f
:10356c000080fa00000006000200fa004181800091
:10357c00e00a210001004000104f780040818000db
:10358c000000e8004081880041818000f0072000a5
:10359c00808f5000010034002830ef001e4078006e
:1035ac000080fa00000006000000fa003181800063
:1035bc0040818000808f50000200320010c0b300a8
:1035cc00010037000040eb000080fa00000006000c
:1035dc000200fa003181800040818000808f500011
:1035ec00040035003181800040818000008f500044
:1035fc0005003700418180000008200001005000c8
:10360c0031818000010f40001e0078000080fa001c
:10361c00000006000200fa00edff07000108200080
:10362c00008f50001e0078000080fa000000060099
:10363c000000fa002002a9000111800090ff2f0069
:10364c00008060000011880020a2a9002062a80060
:10365c00500520004011880023a2a90023e2a900f4
:10366c000188a9002188a80011118000f0f32f0017
:10367c0000806000101188000168a9002168a80072
:10368c0021e2a8002342a8000080fa0000000600f6
:10369c000600fa000e81e80000097800640047007b
:1036ac00010878000040eb00004f78000040eb0070
:1036bc00004f78001100370000000000111180004d
:1036cc0000202000008060000000e000fbff3a00ba
:1036dc000e80e80010007800104078000080fb009d
:1036ec00201188000e80e800100078008000e800af
:1036fc000e80e800010878001e4fe8001e80fb00d9
:10370c00e400470091007800810f5000eaff35007b
:08371c000080fa000000060025
:020000040000fa
:10372400de1100000800000082000000426f6e00fd
:103734006a6f750072000000001000000e000000a7
:103744008000000016100000060000008000000049
:10375400ae110000260000008000000022100000ce
:103764000400000082000000000080003f00000010
:10377400d41100000a000000800000002a1000009c
:1037840002000000800000002e10000080000000f5
:10379400800000001c1000000600000080000000f3
:1037a400ae10000080000000800000002610000021
:1037b40004000000800000002e11000080000000c2
:1037c400800000000e1000000800000080000000cf
:1037d4002c10000002000000800000000000000027
:020000040000fa
:1037e4000000fa00f0032000303a8800213a8000fb
:1037f400f0f32f0000806000203a8800213a800016
:1038040000fe2f00008060000000a000203a880025
:103814001200200080072000a1092000337420003a
:10382400804978008149780082497800103a800004
:10383400000178000200a00060042000710520004f
:1038440023742000804978008149780082497800f7
:1038540000000000113a8000000027008080600012
:1038640000002100808f5000faff3a0000000000a1
:10387400113a800000022000008060000000e00097
:10388400fbff32000080fa00000006000000fa008e
:103894000e2eef001e2eef002e2eef003e2eef0018
:1038a4004e2eef005e2eef006e2eef00214ea9008b
:1038b40060cea90060eea90011cea90011eea90006
:1038c40020cea90020eea9002136800000f82f00a8
:1038d400008060008001b30020368800113480002d
:1038e40000fc2f00008060000000a000103488005d
:0838f4000080fa00000006004c
:020000040000fa
:1038fc00f03fb1000180b10006003500ee03090075
:10390c0000000000403fb1000180b100fbff3d0012
:10391c001000b000203fb00002003500008009000c
:08392c0000000000000006008d
:020000040000fa
:02000004000af0
:04afe000cfff00009f
:020000040000fa
:02000004000af0
:04afe400ffff00006b
:020000040000fa
:02000004000af0
:04afe8007fff0000e7
:020000040000fa
:02000004000af0
:04afec005fff000003
:020000040000fa
:02000004000af0
:04aff00038ff000026
:020000040000fa
:02000004000af0
:04aff400ffffff005c
:00000001FF
